:020000040000fa
:080000000001040000000000f3
:020000040000fa
:100008009401000094010000940100009401000094
:100018009401000094010000940100009401000084
:100028009401000094010000940100009401000074
:100038009401000094010000640200009401000093
:1000480094010000b2010000940100009401000036
:100058009401000094010000940100009401000044
:100068009401000094010000940100009401000034
:100078009401000094010000940100009401000024
:100088009401000094010000940100009401000014
:100098009401000094010000940100009401000004
:1000a80094010000940100009401000094010000f4
:1000b80094010000940100009401000094010000e4
:1000c80094010000940100009401000094010000d4
:1000d80094010000940100009401000094010000c4
:1000e80094010000940100009401000094010000b4
:0800f8009401000094010000d6
:020000040000fa
:100108009401000094010000940100009401000093
:100118009401000094010000940100009401000083
:100128009401000094010000940100009401000073
:100138009401000094010000640200009401000092
:1001480094010000b2010000940100009401000035
:100158009401000094010000940100009401000043
:100168009401000094010000940100009401000033
:100178009401000094010000940100009401000023
:100188009401000094010000940100009401000013
:100198009401000094010000940100009401000003
:1001a80094010000940100009401000094010000f3
:1001b80094010000940100009401000094010000e3
:1001c80094010000940100009401000094010000d3
:1001d80094010000940100009401000094010000c3
:1001e80094010000940100009401000094010000b3
:0801f8009401000094010000d5
:020000040000fa
:100200004f8120000eff20000e018800000000003a
:1002100000012000200288000c000700e04f2000b1
:100220000100200011000700000020000000e00095
:10023000020032000000020000000000c4020200c0
:10024000000000000040da000000fe004440a90069
:10025000000020000000e000030032000000200049
:10026000a00188004440a800000006009101880019
:10027000800078000000eb0015003700e2804000ad
:1002800032a0b4009101ba00e280400032a0b40074
:100290009102ba00e280400032a0b4000002eb00fc
:1002a000472bde00f507b200602ce10004003a00a5
:1002b0000059eb008301e900fdff3e000400370018
:1002c0006128e100010032000082eb000400070019
:1002d0001101ba000200e000e8ff3a000000060049
:1002e0003159ba008301e9000c0032002159ba00eb
:1002f0008301e900080032000400e00003003a0036
:10030000e280400032a0b400f5ff370011d9ba00f6
:100310008301e900faff3a008100e800e180400033
:1003200032a0b400000006000040da000000fe0029
:020000040000fa
:100330000000fa0074202000a41088000d42a900db
:100340008d20a80075108000c4ff2f000482620079
:10035000741088000de2a8000f42a8000080fa0087
:1003600000000600801f7800849fbe003400f80063
:1003700000002000a00188000000fa008520a900ec
:100380001440800004427800044078000ee8b70072
:10039000941080001440880084408000e00f5200d8
:1003a00009003200144080000442780004407800c4
:1003b00000e8b70014002000944088000002eb0021
:1003c0008440880016003700e580200095427800c0
:1003d00004c3b30084cf520011003a0015408000de
:1003e00004032000848f52000d003a005440800026
:1003f0000402e8005440880054408000e10f52009d
:100400000700360014002000844088000002eb0042
:1004100054408800d4c6b300044078000ee8b7000a
:100420000080fa003400f9004f02be004f0078004f
:10043000004006000200fa00000f780000000000f3
:10044000751080000410200004826200e00f52004a
:10045000fbff32006410800066026200e60f52006b
:1004600003003a001e027800841088000300370061
:10047000f40f20001e026200841088000080fa0041
:10048000000006000000fa00881f780000047800d1
:1004900005003700184278000402fb0004007800d1
:1004a000e4ff07000804e80018427800e04f52001b
:1004b000f8ff3a00d0002000deff07004f0478006c
:1004c0000080fa0000000600841f78003400f80065
:1004d00004002000a40188000000fa000002eb00e4
:1004e0003408880084c0a9000080fa003400f900b4
:1004f0004f027800004006000000fa00349c200003
:100500006408880044012000040c8800843e200018
:10051000140c8800240c80000400a1000410a0002a
:100520000420a000240c8800840880000440a0005f
:100530000450a0008408880011e1a800c45d2000d8
:10054000040c880044012000340c8800843e200004
:10055000440c8800540c80000400a1000410a0008a
:100560000420a000540c8800c45d2000340c8800d6
:100570000080fa00000006000200fa00004f780038
:100580000080fa00000006000600fa00100798003c
:100590002107980066ff0700d7ff0700a962a8009f
:1005a000c762a900a982a800c782a900de22a9000b
:1005b000de02a900a802a800c762a900a822a8001c
:1005c000c762a900c45d2000040f7800170037003f
:1005d0000000000015003700000000001300370085
:1005e0000000000011003700000000000f0037007d
:1005f000000000000d003700000000000b00370075
:10060000000000000900370000000000070037006c
:100610000000000005003700000000000300370064
:10062000000000000100370000000000944080003e
:10063000e10f520088003a000002eb00944088006d
:1006400004802000144278000482fb006123b9007a
:10065000e4fb2f00f5ff2f000602420087824a00cc
:100660006601200007002000860f5200878f5a0085
:10067000d7ff3e00046001001f0037003d00370037
:1006800026003700d4ff3700d3ff3700d2ff3700f2
:10069000d1ff3700d0ff3700cfff370040003700d1
:1006a00029003700ccff37000a003700caff3700a7
:1006b000c9ff370045003700c7ff37005c0037002f
:1006c00050003700c4ff3700c3ff37004600370033
:1006d00055003700c45d2000040f7800cb62a900ec
:1006e000cb82a800c45d2000040c88000002eb004f
:1006f000340c880057003700c45d2000040f7800d8
:10070000cb62a800cb82a900c45d2000040c880045
:100710000002eb00340c88004e003700c45d20005e
:10072000040f7800cb62a900cb82a800e222a800c7
:10073000e202a900c45d2000040c8800349c200063
:10074000340c880043003700c45d2000040f78009b
:10075000cb62a900cb82a800e222a900e202a80095
:10076000c45d2000040c8800349c2000340c8800f8
:1007700038003700c45d2000040f7800cb62a80069
:10078000cb82a900e222a800e202a900c45d2000f9
:10079000040c8800349c2000340c88002d003700a5
:1007a000c45d2000040f7800cb62a800cb82a900b2
:1007b000e222a900e202a800c45d2000040c880027
:1007c000349c2000340c880022003700e222a9006b
:1007d000e202a800c45d2000040c8800349c2000c4
:1007e000340c88001b003700e222a800e202a900b6
:1007f000c45d2000040c8800349c2000340c880068
:1008000014003700349c2000040f7800e222a90075
:10081000e202a8000002eb00040c8800349c2000d7
:10082000340c88000b003700ca02a800ca22a800b6
:10083000cb62a900cb82a900e222a900e202a900b2
:100840000002eb00040c88000002eb00340c88006e
:100850000000000075ff370015408000740520007f
:10086000848f52005eff320015408000b4042000e7
:10087000848f52005cff3200154080001405200078
:10088000848f52005aff320015408000c4042000bb
:10089000848f520058ff320015408000440420002d
:1008a000848f520056ff320015408000340420002f
:1008b000848f520054ff3200154080004405200010
:1008c000848f520052ff3200154080002404200023
:1008d000848f520050ff320015408000e404200055
:1008e000848f52004eff32001540800084052000a6
:1008f000848f52004cff3200cb62a900cb82a9004a
:10090000e222a900e202a90048ff37000000fa0035
:100910008cc0a90011e1a90084c0a9000080fa00e0
:10092000000006000200fa00000f780084c0a90051
:100930001e0278000442780067426200674262004b
:10094000674262000482fb00670262004822dd0009
:10095000b6048000f58f2f008502630004827200c8
:10096000b40488009e027800688262004322de00a0
:1009700004427800614262000482fb00610262006e
:100980004622dd0066048000f5fb2f00850263002f
:1009900004827200640488000080fa0000000600ef
:1009a0000400fa00000f7800110798000002eb0025
:1009b000340888001e029000640888001e02780037
:1009c000840888001061a9000080fa000000060079
:1009d0000000fa0034088000040078000080fa006b
:1009e000000006000200fa00000f78001e027800e6
:0c09f000340888000080fa0000000600b7
:020000040000fa
:1009fc00000800000a000000000000000a080000c7
:100a0c000a000000020000000000dc00054e00009f
:0c0a1c00000000000000000000000000ce
:020000040000fa
:0200000401f009
:04000000e5bf000058
:020000040000fa
:0200000401f009
:04000400ff7f00007a
:00000001FF
