:020000040000fa
:080000000001040000000000f3
:020000040000fa
:100008009401000094010000940100009401000094
:100018009401000094010000940100009401000084
:100028009401000094010000940100009401000074
:100038009401000094010000e00100009401000018
:1000480094010000120200009401000094010000d5
:100058009401000094010000940100009401000044
:100068009401000094010000940100009401000034
:100078009401000094010000940100009401000024
:100088009401000094010000940100009401000014
:100098009401000094010000940100009401000004
:1000a80094010000940100009401000094010000f4
:1000b80094010000940100009401000094010000e4
:1000c80094010000940100009401000094010000d4
:1000d80094010000940100009401000094010000c4
:1000e80094010000940100009401000094010000b4
:0800f8009401000094010000d6
:020000040000fa
:100108009401000094010000940100009401000093
:100118009401000094010000940100009401000083
:100128009401000094010000940100009401000073
:100138009401000094010000e00100009401000017
:1001480094010000120200009401000094010000d4
:100158009401000094010000940100009401000043
:100168009401000094010000940100009401000033
:100178009401000094010000940100009401000023
:100188009401000094010000940100009401000013
:100198009401000094010000940100009401000003
:1001a80094010000940100009401000094010000f3
:1001b80094010000940100009401000094010000e3
:1001c80094010000940100009401000094010000d3
:1001d80094010000940100009401000094010000c3
:1001e80094010000940100009401000094010000b3
:0801f8009401000094010000d5
:020000040000fa
:100200002f8020000eff20000e018800000000005b
:1002100000012000200288000c000700a03320000d
:100220000100200011000700000020000000e00095
:100230000200320000000200000000008e020200f6
:10024000000000000040da000000fe004440a90069
:10025000200320000000e000030032000000200026
:10026000a00188004440a800000006009101880019
:10027000800078000000eb0015003700e2804000ad
:1002800032a0b4009101ba00e280400032a0b40074
:100290009102ba00e280400032a0b4000002eb00fc
:1002a000472bde00f507b200602ce10004003a00a5
:1002b0000059eb008301e900fdff3e000400370018
:1002c0006128e100010032000082eb000400070019
:1002d0001101ba000200e000e8ff3a000000060049
:1002e0003159ba008301e9000c0032002159ba00eb
:1002f0008301e900080032000400e00003003a0036
:10030000e280400032a0b400f5ff370011d9ba00f6
:100310008301e900faff3a008100e800e180400033
:1003200032a0b400000006000040da000000fe0029
:020000040000fa
:1003300030300000304c0000003000003030000051
:100340004400000030300000304e0000003000005b
:10035000303000004b00000030300000304300001f
:10036000003000003030000042000000303000005b
:100370003051000000300000303000005700000015
:1003800030300000305400000030000030300000f9
:040390005800000011
:020000040000fa
:100394000000fa000002eb00340888000471220017
:1003a400640888001021a90084c0a9008cc0a8009a
:1003b40011e1a8000080fa0000000600841f780004
:1003c4003400f80004002000a40188000000fa00b2
:1003d4000002eb003408880084c0a9000080fa0001
:1003e4003400f9004f027800004006000000fa00d3
:1003f40084202000a41088000d42a9008d20a800ac
:1004040075108000c4ff2f000482620074108800fd
:100414000de2a8000f42a8000080fa0000000600c8
:10042400801f7800841f78003400f800000020004a
:10043400a00188000000fa008520a9009410800023
:10044400044278000440780000e8b7000080fa0015
:100454003400f9004f0278004f0078000040060095
:100464000200fa00000f7800000000007510800000
:100474000410200004826200e00f5200fbff3200ef
:100484006410800066026200e60f520003003a0026
:100494001e0278008410880003003700f40f200047
:1004a4001e026200841088000080fa00000006002a
:1004b4000000fa00881f7800000478000500370067
:1004c400184278000402fb0004007800e4ff0700ef
:1004d4000804e80018427800e04f5200f8ff3a00a0
:1004e4004f0478000080fa00000006000000fa00c3
:1004f400a942a800a962a800c742a800c762a80030
:10050400d202a800d222a800d242a800d322a80076
:100514000080fa00000006000400fa00000f7800d2
:1005240011079800f1ff0700b0ff070098ff0700cc
:10053400451680000440200004826200e00f52004f
:1005440012003200d662a800a41680006102620084
:10055400e00f52000300320080192800d4ff070086
:1005640041003700a416800062026200e00f5200ce
:1005740003003200d0192800cdff07003a003700ed
:10058400201a2800caff07003700370045168000ec
:100594000480200004826200e00f52001200320046
:1005a400d662a800a416800061026200e00f520027
:1005b40003003200701a2800bdff07002a0037002c
:1005c400a416800062026200e00f520003003200b1
:1005d400c01a2800b6ff070023003700101b2800ac
:1005e400b3ff070020003700a416800061026200f8
:1005f400e00f520004003200d662a800601b2800fd
:10060400abff070018003700a416800062026200e6
:10061400e00f520004003200d662a800b01b28008c
:10062400a3ff070010003700a51680000420200057
:1006340004826200e00f520004003200d662a80077
:10064400001c28009aff070007003700a41680004a
:1006540064026200e00f520003003200d662a80078
:10066400501c280092ff0700d662a900b0ff370093
:020000040000fa
:10067400000800000200000000000000000000006c
:020000040000fa
:0200000401f009
:04000000e5bf000058
:020000040000fa
:0200000401f009
:04000400ff7f00007a
:00000001FF
